:020000040800F2
:1000000000000120C5020008CD020008D10200084E
:1000100045030008490300089103000800000000A0
:10002000000000000000000000000000D9030008EC
:10003000DD03000800000000E1030008751200085D
:10004000F5030008F5030008F5030008F5030008B0
:10005000F5030008F5030008F5030008F5030008A0
:10006000F5030008F5030008F5030008F503000890
:10007000F5030008F5030008F5030008F503000880
:10008000F5030008F5030008F50300080000000070
:10009000000000000000000000000000F503000860
:1000A000F5030008F5030008F5030008F503000850
:1000B000F5030008F5030008F5030008F503000840
:1000C000F5030008F5030008F5030008F503000830
:1000D000F5030008E5150008F11500080000000010
:1000E000F5030008F5030008F50300080000000010
:1000F000000000000000000000000000F503000800
:1001000000000000F5030008F5030008F5030008EF
:1001100000000000000000000000000000000000DF
:10012000F5030008F5030008F5030008F5030008CF
:10013000F5030008000000000000000000000000BF
:10014000000000000000000000000000F5030008AF
:10015000F5030008F5030008F5030008FD15000885
:10016000F5030008F503000800000000000000008F
:10017000000000000000000000000000000000007F
:1001800000000000F503000800000000000000006F
:10019000F503000800B583B000F0BCF9384B394ACC
:1001A0001360394A136039490CE00A684B6801F161
:1001B0000C04886803E01168196004330432984223
:1001C000F9D82146324B9942EFD32E4B1A68314B66
:1001D0009A4204D12C4B1A682F4B9A4200D0FEE76A
:1001E000274B2E4A13602E4A13602E4B0AE0194605
:1001F00051F8082B5B6802E00020106004329A423C
:10020000FAD30B46284A9342F1D3244B1B6813B907
:10021000234B1B6803B1FEE700F088F9694601A88B
:1002200000F022F9214C224B1C1BA410002504E0F5
:100230001E4B53F8253098470135AC42F8DC1D4C75
:100240001D4B1C1BA410002504E01A4B53F825304D
:1002500098470135AC42F8DC0099019801F0EAF9C1
:100260000546164C164B1C1BA41004E0013C134B16
:1002700053F824309847002CF8DC284600F0D0F8DA
:10028000BABADECA00000020D8000020F803000837
:10029000100400087856341232547698DC0000209E
:1002A000DC010020100400082004000820040008DD
:1002B000200400082004000820040008200400088E
:1002C0002004000808B5FFF765FF00BF00BEFEE789
:1002D0001EF0040F0CBFEFF30880EFF309807146A6
:1002E000414A10472DE9F04182B004468846134B3D
:1002F0005E6B9F6B9D6A1B6B13F0020F0DD00F4B53
:10030000DB6A002B09DA4BF6AB6100F08BF920B108
:100310004FF00042094BDA620CE0094800F0ACF8FB
:10032000CDF800803B4632462946204600F002F9CF
:1003300000BEFEE702B0BDE8F08100BF00ED00E0C6
:10034000D425000800BEFEE71EF0040F0CBFEFF33B
:100350000880EFF309807146244A10472DE9F041E7
:1003600082B004468846084B5E6B9F6B9D6A0748C7
:1003700000F082F8CDF800803B4632462946204600
:1003800000F0D8F800BEFEE700ED00E0E42500082C
:100390001EF0040F0CBFEFF30880EFF309807146E5
:1003A000134A10472DE9F04182B004468846084BB5
:1003B0005E6B9F6B9D6A074800F05EF8CDF8008089
:1003C0003B4632462946204600F0B4F800BEFEE720
:1003D00000ED00E0F025000800BEFEE700BEFEE7ED
:1003E00000BEFEE770470000E50200085D0300085C
:0803F000A503000800BEFEE7B2
:1003F8005026000800000020DC00002050260008DD
:100408000000001000000010DC000020E0010020C7
:080418000000001000000010BC
:10042000FEE700BF08B50D4B1B6813B90C4A0B4B18
:100430001A600A4B1A68C31C23F0030313440949CA
:100440008B4206D901F0A4FB0C2303604FF0FF3070
:1004500008BD02490B60104608BD00BFE000002047
:10046000E001002000FC002001230360014B0B6031
:10047000704700BF040000200FB400B583B004AB88
:1004800053F8042B01938021064801F0B3FB0028A8
:1004900003DD0146034800F039F803B05DF804EBD2
:1004A00004B07047E80000202DE9F04385B0044611
:1004B0000F46435613BB042528462146ABBE0446CF
:1004C0001FE03546102E28BF1025002306E014F942
:1004D000011B04AA1A4402F8101C0133AB42F6D3E4
:1004E00004AA1344002203F8102CE9464FF0040834
:1004F00040464946ABBE8046761B00E00E46002EC5
:10050000DFD1384605B0BDE8F08300BF08B5FFF77E
:10051000CBFF08BD08B500F095F8024B024A9A607F
:1005200008BD00BF00ED00E00000000808B500F0C5
:10053000A9F808BDF8B504460D4617461E462648DC
:10054000FFF79AFF21682548FFF796FF6168244866
:10055000FFF792FFA1682348FFF78EFFE16822486A
:10056000FFF78AFF21692148FFF786FF616920486C
:10057000FFF782FFA1691F48FFF77EFFE1691E4870
:10058000FFF77AFF1D48FFF777FF29461C48FFF762
:1005900073FF1C4CE16A1C48FFF76EFF216B1B4880
:1005A000FFF76AFFE16B1A48FFF766FF15F0800F4F
:1005B00003D039461748FFF75FFF15F4004F03D00B
:1005C00031461548FFF758FF1448FFF755FF0699C5
:1005D0001348FFF751FFF8BDB8240008C8240008ED
:1005E000D8240008E8240008F8240008082500089A
:1005F0001825000828250008382500084825000887
:100600005425000800ED00E064250008742500086A
:100610008425000894250008A4250008B4250008B6
:10062000BC25000883691A888A4207D10268033A08
:10063000012A05D8023383610120704700207047EA
:10064000002070470C4B1A6842F001021A6000212A
:1006500099601A6822F0847222F480321A60074A84
:100660005A601A6822F480221A60D9604FF0006242
:10067000034B9A60704700BF0038024010300024DE
:1006800000ED00E0224B9B6803F00C03042B07D025
:10069000082B09D0002B2DD11E4A1F4B1A602CE0CD
:1006A0001E4A1D4B1A6028E0194B5A685B6803F01C
:1006B0003F0312F4800F09D0184AB2FBF3F2144B37
:1006C0005B68C3F3881303FB02F208E0114AB2FB34
:1006D000F3F30F4A5168C1F3881101FB03F20C4B8D
:1006E0005B68C3F3014301335B00B2FBF3F30A4AD7
:1006F000136002E0074A084B1A60054B9B68C3F37E
:100700000313074AD15C044A1368CB401360704757
:10071000003802400024F4000C00002040787D01E5
:10072000002600082DE9F04744688768458801786D
:10073000062900F2AD81042F00F2AD810023184696
:10074000A1E145FA03F212F0010F00F09A810529A8
:1007500000F29681DFE811F0060048008A00CC0024
:100760000F015101DFF834E3DEF80020D2F80080F9
:100770005A004FF0030C0CFA02FC6FEA0C0C08EA6A
:100780000C094FEAD40808FA02F849EA0808DEF82A
:100790000090C9F80080DEF80080D8F80490C4F317
:1007A000800808FA03F649EA0606DEF80080C8F871
:1007B0000460DEF80060D6F8088007FA02F648EA1E
:1007C0000606DEF80080C8F80860DEF80060F6680B
:1007D00004F003040CEA060C04FA02F24CEA0202EA
:1007E000DEF80060F2604CE1DFF8B0E2DEF80420F1
:1007F000D2F800805A004FF0030C0CFA02FC6FEAAA
:100800000C0C08EA0C094FEAD40808FA02F849EA85
:100810000808DEF80490C9F80080DEF80480D8F8F3
:100820000490C4F3800808FA03F649EA0606DEF8E5
:100830000480C8F80460DEF80460D6F8088007FA7F
:1008400002F648EA0606DEF80480C8F80860DEF81A
:100850000460F66804F003040CEA060C04FA02F2E1
:100860004CEA0202DEF80460F2600AE1DFF82CE2F2
:10087000DEF80820D2F800805A004FF0030C0CFA82
:1008800002FC6FEA0C0C08EA0C094FEAD40808FADB
:1008900002F849EA0808DEF80890C9F80080DEF896
:1008A0000880D8F80490C4F3800808FA03F649EAEF
:1008B0000606DEF80880C8F80460DEF80860D6F89E
:1008C000088007FA02F648EA0606DEF80880C8F84B
:1008D0000860DEF80860F66804F003040CEA060C11
:1008E00004FA02F24CEA0202DEF80860F260C8E0A4
:1008F000DFF8A8E1DEF80C20D2F8009003EB430209
:100900004FF0030808FA02F86FEA080809EA080A33
:100910004FEAD40C0CFA02F94AEA0909DEF80CA0F5
:10092000CAF80090DEF80C90D9F804900CF0010C95
:100930000CFA03F649EA0606DEF80CC0CCF80460AF
:10094000DEF80C60D6F808C007FA02F64CEA060694
:10095000DEF80CC0CCF80860DEF80C60F66804F035
:10096000030408EA060804FA02F248EA0202DEF882
:100970000C60F26085E0DFF824E1DEF81020D2F8A8
:1009800000909A004FF0030808FA02F86FEA08088E
:1009900009EA080A4FEA141C0CFA02F94AEA0909A2
:1009A000DEF810A0CAF80090DEF81090D9F8049094
:1009B0000CF0010C0CFA03F649EA0606DEF810C04A
:1009C000CCF80460DEF81060D6F808C007FA02F62A
:1009D0004CEA0606DEF810C0CCF80860DEF81060BD
:1009E000F66804F0030408EA060804FA02F248EA8A
:1009F0000202DEF81060F26043E0DFF8A0E0DEF80B
:100A00001420D2F8009003EB83024FF0030808FA99
:100A100002F86FEA080809EA080A4FEA541C0CFABF
:100A200002F94AEA0909DEF814A0CAF80090DEF8D3
:100A30001490D9F804900CF0010C0CFA03F649EA72
:100A40000606DEF814C0CCF80460DEF81460D6F8B0
:100A500008C007FA02F64CEA0606DEF814C0CCF825
:100A60000860DEF81460F66804F0030408EA06087B
:100A700004FA02F248EA0202DEF81460F26000E0D2
:100A800001200133DBB20F2B7FF65BAEBDE8F087B0
:100A90000220BDE8F0870820BDE8F08710000020A4
:100AA000062800F29280052800F29180DFE800F02D
:100AB000031A31485F7662B94C4A1068836923EAA9
:100AC000010383611268936943EA01419161002047
:100AD0007047012A7DD1454B1A689369194391618A
:100AE0000020704762B9414A5068836923EA0103D4
:100AF00083615268936943EA014191610020704724
:100B0000012A68D1394B5A689369194391610020D1
:100B1000704762B9354A9068836923EA01038361AB
:100B20009268936943EA0141916100207047012A6C
:100B300053D12E4B9A6893691943916100207047F5
:100B400062B92A4AD068836923EA01038361D268C3
:100B5000936943EA0141916100207047012A3ED127
:100B6000224BDA689369194391610020704762B99A
:100B70001E4A1069836923EA01038361126993693C
:100B800043EA0141916100207047012A29D1174BA6
:100B90001A699369194391610020704762B9134A39
:100BA0005069836923EA010383615269936943EAC7
:100BB0000141916100207047012A14D10B4B5A6901
:100BC000936919439161002070470220704701200A
:100BD00070470020704700207047002070470020B9
:100BE0007047002070470020704700BF10000020B1
:100BF000062847D830B4002340E041FA03F414F04B
:100C0000010F39D0052837D8DFE800F0030C151E96
:100C100027301E4C2468246924FA03F505F00105E9
:100C2000157029E0194C6468246924FA03F505F06D
:100C30000105157020E0154CA468246924FA03F519
:100C400005F00105157017E0104CE468246924FADA
:100C500003F505F0010515700EE00C4C24692469BC
:100C600024FA03F505F00105157005E0074C6469E9
:100C7000246924FA03F515700133DBB20F2BBCD9BC
:100C8000002001E00220704730BC704710000020B7
:100C900070B4052800F2B8800F2A00F2B780FF294F
:100CA0004AD94EE041FA03F515F0010F41D005286D
:100CB0003FD8DFE800F0030D17212B35554E35687E
:100CC0002D6A9C0002FA04F42C4335682C6230E053
:100CD000504E75682D6A9C0002FA04F42C43756826
:100CE0002C6226E04B4EB5682D6A9C0002FA04F493
:100CF0002C43B5682C621CE0464EF5682D6A9C00BA
:100D000002FA04F42C43F5682C6212E0414E356976
:100D10002D6A9C0002FA04F42C4335692C6208E029
:100D20003C4E75692D6A9C0002FA04F42C437569E7
:100D30002C620133DBB200E00023072BB2D9002084
:100D400065E0A1F580739BB2B3F5FE4F57D9002043
:100D50005DE041FA03F515F0010F4DD005284BD8A1
:100D6000DFE800F0030F1B27333F2A4E35686D6A1A
:100D7000A3F10804A40002FA04F42C4335686C6261
:100D80003AE0244E75686D6AA3F10804A40002FAE3
:100D900004F42C4375686C622EE01E4EB5686D6AD3
:100DA000A3F10804A40002FA04F42C43B5686C62B1
:100DB00022E0184EF5686D6AA3F10804A40002FA57
:100DC00004F42C43F5686C6216E0124E35696D6AC6
:100DD000A3F10804A40002FA04F42C4335696C6200
:100DE0000AE00C4E75696D6AA3F10804A40002FACA
:100DF00004F42C4375696C620133DBB200E0082314
:100E00000F2BA6D9002002E0022000E0062070BCD3
:100E1000704700BF1000002010B584B0002416E019
:100E2000092302930C49A300181942000A44908830
:100E3000ADF8060092788DF8042023445A000A4445
:100E4000137A039301A8FFF76DFC0134E4B2002C80
:100E5000E6D0002004B010BD1026000838B5064CBE
:100E6000820015186B002344DA794A4099889878F3
:100E7000FFF716FE002038BD1026000830B583B0FD
:100E800002AA02F8011D0A4C81000D186B002344D0
:100E90009C8821469878FFF7ABFE9DF8071081F0FB
:100EA0000101E0B2FFF7DAFF002003B030BD00BF60
:100EB00010260008F02818D870B40E4C2568420996
:100EC00002F1600655F8261000F01F00012303FA16
:100ED00000F041EA000345F82630216851F822303D
:100EE000184341F82200002001E00220704770BC46
:100EF000704700BF2800002002285CD801281ED0BF
:100F000010B1022839D058E0304A13689B6823F0AA
:100F1000030312689360002301E001339BB22B4A64
:100F20001268926812F00C0F03D042F20F729342D3
:100F3000F3D942F20F72934241D800207047234AFE
:100F400013689B6823F0030343F001031268936066
:100F5000002301E001339BB21C4A12689268C2F37D
:100F60008102012A03D042F20F729342F2D942F277
:100F70000F72934225D800207047144A13689B686B
:100F800023F0030343F0020312689360002301E09F
:100F900001339BB20D4A12689268C2F38102022AA1
:100FA00003D042F20F729342F2D942F20F7293428F
:100FB00009D80020704704207047042070470320A0
:100FC0007047032070470320704700BF2C000020AB
:100FD000032800F24381DFE810F004005B006800A2
:100FE000E1008F4B1B681B6B162900F23981DFE88B
:100FF00011F0480041003A0033002C00370137015E
:101000002500370137013701370137013701370133
:101010003701370137013701370137011E0017004B
:1010200043F480037E4A126813630020704743F440
:1010300000137B4A126813630020704743F080035B
:10104000774A126813630020704743F01003744A14
:10105000126813630020704743F00803704A126857
:1010600013630020704743F004036D4A1268136352
:101070000020704743F00203694A1268136300209E
:10108000704743F00103664A1268136300207047FB
:10109000634B1B685B6B072940F0E48043F08003DF
:1010A0005F4A12685363002070475D4B1B681B6CDE
:1010B0001C2900F2D980DFE811F06A0063005C00AF
:1010C0005500D700D700D700D700D700D700D700EA
:1010D0004E00D700D70047004000D7003900D700A6
:1010E000D700D70032002B002400D700D700D7004C
:1010F000D7001D0043F08053494A12681364002052
:10110000704743F40003464A126813640020704796
:1011100043F48003424A126813640020704743F48A
:1011200000133F4A126813640020704743F40033F1
:101130003B4A126813640020704743F40043384A66
:10114000126813640020704743F48043344A1268E5
:1011500013640020704743F40063314A126813633C
:101160000020704743F008032D4A126813640020E2
:10117000704743F004032A4A126813640020704742
:1011800043F00203264A126813640020704743F0BC
:101190000103234A1268136400207047204B1B6828
:1011A0005B6C122962D8DFE801F0526161614B4447
:1011B00061613D6161342D261F6118110A0043F4FD
:1011C0008023174A126853640020704743F40033A9
:1011D000134A126853640020704743F48033104A66
:1011E000126853640020704743F480430C4A12682D
:1011F00053640020704743F40053094A1268536453
:101200000020704743F48053054A1268536400205D
:10121000704743F40063024A126853640020704729
:101220002C00002043F48073114A1268536300209D
:10123000704743F020030E4A126853640020704741
:1012400043F010030A4A126853640020704743F0C9
:101250000103074A1268536400207047002070475A
:101260002A2070472B2070472C2070472D20704774
:101270002C00002008B5024B1B6803B1984708BD3D
:1012800068010020F8B5054644791CB1012C03D053
:10129000002002E0002000E00120AB68C0F1020065
:1012A00003FB00F0C00000F0ABFA0146184800F064
:1012B000B3FB074600F04CFC064614B1012C0DD0E0
:1012C00019E000F09DFA0146384600F0E7F94FF0CA
:1012D000834100F0EDFA00F03BFC0DE000F090FAE5
:1012E0000146384600F0DAF94FF0824100F0E0FAAA
:1012F00000F02EFC00E000202A78064B53F8223044
:101300009A6800F00F0040EA061010439860F8BD9C
:101310000024744B3400002010B50446334B1B5C92
:10132000012B2CD1324B53F820301B6813F0400FA7
:1013300025D0304B53F820302F4A52F820209342CA
:101340000ED22B4A52F820202C4951F82010CB5CA9
:101350005360284A52F82030013342F820300EE022
:101360000022224B1A54224B53F82020D36823F03A
:101370004003D360224B53F8203003B19847214BF0
:101380001B5D012B31D11A4B53F824301B6813F02D
:10139000200F2AD01C4B53F824301C4A52F824202A
:1013A00093420BD21A4A52F82420114951F82410C2
:1013B0004968D154144A013342F82430124B53F88F
:1013C0002420124B53F824309A420ED100220D4BA8
:1013D0001A55074B53F82420D36823F02003D36019
:1013E0000C4B53F8243003B1984710BD3000002057
:1013F00034000020C0010020840100209001002062
:101400009C010020400000206C010020B40100205D
:10141000A80100207801002038B504460378012B8C
:101420000AD80722418A007CFFF732FC0722E18BB1
:10143000207FFFF72DFC0BE0022B09D10822418A07
:10144000007CFFF725FC0822E18B207FFFF720FCC2
:1014500004F11000FFF766F904F11C00FFF762F9D0
:1014600023782E4D55F82320D36843F00803D3602A
:10147000237855F82320D36843F00403D3602278FF
:1014800055F82230DB6823F48053A1780B4355F8DC
:101490002220D360227855F82230DB6823F4806361
:1014A000E1780B4355F82220D360227855F822309A
:1014B000DB6823F4005321790B4355F82220D360D5
:1014C000227855F822301B6923F44053A1790B434D
:1014D00055F822201361227855F82230DB6823F476
:1014E0000043A1790B4355F82220D3602046FFF733
:1014F000C9FE237855F82320D36843F40053D36002
:101500002520FFF7D7FC23780020054AD054054A50
:10151000D05455F82330186038BD00BF3400002087
:10152000300000204000002070B4124C245CF4B95C
:101530000125104C2554104C44F820100F4C44F851
:1015400020200F4C002244F820200E4E46F8203078
:101550000D4B53F820600978716053F82010CB6868
:1015600043F04003CB6044F82050104600E00220D6
:1015700070BC7047300000209001002084010020E2
:10158000C00100209C0100203400002030B40F4C2A
:10159000245CC4B901250D4C25540D4C44F8201091
:1015A0000C4941F8202000220B4941F820200B492A
:1015B00041F820300A4B53F82010CB6843F0200349
:1015C000CB60104600E0022030BC70474000002095
:1015D000A8010020B40100206C0100207801002047
:1015E0003400002008B50020FFF796FE08BD00BFBC
:1015F00008B50120FFF790FE08BD00BF08B5022026
:10160000FFF78AFE08BD00BF08B501210020FFF7E3
:1016100025FC08BD08B501210020FFF72FFC034B76
:10162000032203490020FFF77FFF08BD09160008C9
:10163000D801002008B50020FFF75EFC0021084615
:10164000FFF7C6FC01210020FFF7C2FC02210020A9
:10165000FFF7BEFC04210320FFF7BAFC0848FFF7A0
:10166000DBFEFFF7D9FB074B032207490020FFF7FA
:101670005BFF064B032206490020FFF787FFF8E7D0
:10168000440000200916000870000020151600080C
:10169000D801002080F0004002E000BF81F000414E
:1016A00042001FBF5FEA410392EA030F7FEA226C08
:1016B0007FEA236C6AD04FEA1262D2EB1363C1BF98
:1016C000D218414048404140B8BF5B42192B88BF07
:1016D000704710F0004F40F4000020F07F4018BF2A
:1016E000404211F0004F41F4000121F07F4118BF4A
:1016F000494292EA030F3FD0A2F1010241FA03FCF2
:1017000010EB0C00C3F1200301FA03F100F00043D9
:1017100002D5494260EB4000B0F5000F13D3B0F1A1
:10172000807F06D340084FEA310102F10102FE2A10
:1017300051D2B1F1004F40EBC25008BF20F0010080
:1017400040EA03007047490040EB000010F4000F2E
:10175000A2F10102EDD1B0FA80FCACF1080CB2EBC1
:101760000C0200FA0CF0AABF00EBC2505242184320
:10177000BCBFD0401843704792F0000F81F40001C5
:1017800006BF80F400000132013BB5E74FEA410398
:101790007FEA226C18BF7FEA236C21D092EA030F04
:1017A00004D092F0000F08BF0846704790EA010F7E
:1017B0001CBF0020704712F07F4F04D1400028BFAB
:1017C00040F00040704712F100723CBF00F500008D
:1017D000704700F0004343F0FE4040F400007047C3
:1017E0007FEA226216BF08467FEA2363014642026F
:1017F00006BF5FEA412390EA010F40F48000704782
:101800004FF0000304E000BF10F0004348BF404227
:101810005FEA000C08BF704743F0964301464FF063
:1018200000001CE050EA010208BF70474FF00003BF
:101830000AE000BF50EA010208BF704711F0004300
:1018400002D5404261EB41015FEA010C02BF8446D0
:101850000146002043F0B64308BFA3F18053A3F52F
:101860000003BCFA8CF2083AA3EBC25310DB01FA76
:1018700002FC634400FA02FCC2F12002BCF1004FFA
:1018800020FA02F243EB020008BF20F0010070478B
:1018900002F1200201FA02FCC2F1200250EA4C00DF
:1018A00021FA02F243EB020008BF20EADC70704725
:1018B0004FF0FF0C1CEAD0521EBF1CEAD15392EA33
:1018C0000C0F93EA0C0F6FD01A4480EA010C40020F
:1018D00018BF5FEA41211ED04FF0006343EA501069
:1018E00043EA5111A0FB01310CF00040B1F5000FAB
:1018F0003EBF490041EAD3715B0040EA010062F15A
:101900007F02FD2A1DD8B3F1004F40EBC25008BF43
:1019100020F00100704790F0000F0CF0004C08BF61
:1019200049024CEA502040EA51207F3AC2BFD2F12E
:10193000FF0340EAC250704740F400004FF000033C
:10194000013A5DDC12F1190FDCBF00F00040704776
:10195000C2F10002410021FA02F1C2F1200200FAB4
:1019600002FC5FEA310040F1000053EA4C0308BF7B
:1019700020EADC70704792F0000F00F0004C02BFCC
:10198000400010F4000F013AF9D040EA0C0093F047
:10199000000F01F0004C02BF490011F4000F013BA1
:1019A000F9D041EA0C018FE70CEAD15392EA0C0F0F
:1019B00018BF93EA0C0F0AD030F0004C18BF31F07A
:1019C000004CD8D180EA010000F00040704790F050
:1019D000000F17BF90F0004F084691F0000F91F0F4
:1019E000004F14D092EA0C0F01D142020FD193EABA
:1019F0000C0F03D14B0218BF084608D180EA010042
:101A000000F0004040F0FE4040F40000704740F01D
:101A1000FE4040F4400070474FF0FF0C1CEAD052EB
:101A20001EBF1CEAD15392EA0C0F93EA0C0F69D047
:101A3000A2EB030280EA010C49024FEA402037D0B2
:101A40004FF0805343EA111143EA10130CF00040A9
:101A50008B4238BF5B0042F17D024FF4000C8B4299
:101A600024BF5B1A40EA0C00B3EB510F24BFA3EB79
:101A7000510340EA5C00B3EB910F24BFA3EB910349
:101A800040EA9C00B3EBD10F24BFA3EBD10340EAA3
:101A9000DC001B0118BF5FEA1C1CE0D1FD2A3FF6E9
:101AA00050AF8B4240EBC25008BF20F0010070479E
:101AB0000CF0004C4CEA50207F32C2BFD2F1FF0341
:101AC00040EAC250704740F400004FF00003013A72
:101AD00037E792F0000F00F0004C02BF400010F416
:101AE000000F013AF9D040EA0C0093F0000F01F02A
:101AF000004C02BF490011F4000F013BF9D041EA4C
:101B00000C0195E70CEAD15392EA0C0F08D142027E
:101B10007FF47DAF93EA0C0F7FF470AF084676E751
:101B200093EA0C0F04D14B023FF44CAF08466EE72A
:101B300030F0004C18BF31F0004CCAD130F00042F8
:101B40007FF45CAF31F000437FF43CAF5FE700BF50
:101B500042000ED2B2F1FE4F0BD34FF09E03B3EB17
:101B6000126209D44FEA002343F0004323FA02F043
:101B700070474FF00000704712F1610F01D142022F
:101B800002D14FF0FF3070474FF00000704700BFA8
:101B9000014B1868704700BFD400002030B5141EF8
:101BA00005469BB0184604DA8B232B604FF0FF30BC
:101BB0001DE04FF40273ADF80C3014BF04F1FF3395
:101BC0002346029305934FF6FF7300910491ADF8FD
:101BD0000E3002461E9B6946284600F073F8431CEF
:101BE000BCBF8B232B6014B1009B00221A701BB06A
:101BF00030BD000007B5009313460A46014603486E
:101C00000068FFF7CBFF03B05DF804FBD4000020B1
:101C10002DE9F0478E689E4282460C4691469846D2
:101C20003ED88A8912F4906F3AD0256809696F1AF4
:101C30006569022305EB450595FBF3F57B1C4344E1
:101C40009D4238BF1D4653050FD5294600F094FB31
:101C5000064698B13A46216900F01AFBA38923F49D
:101C6000906343F08003A38113E02A4600F0E2FB77
:101C7000064670B92169504600F030FB0C23CAF8C3
:101C80000030A38943F04003A3814FF0FF30BDE84B
:101C9000F087266165613E44ED1B2660A5604646DF
:101CA000464528BF464632464946206800F0FBFAC2
:101CB000A3689B1BA36023681E4426600020BDE828
:101CC000F08700002DE9F04F9DB0804603938B898B
:101CD0001C060D4616460DD50B695BB9402100F078
:101CE0004BFB2860286118B90C23C8F80030CDE000
:101CF00040236B610023099320238DF82930DFF8FE
:101D00009CB130238DF82A3037463C4614F8013B0D
:101D10001BB9B7EB060910D003E0252BF9D02746F5
:101D2000F3E74B46324629464046FFF771FF013044
:101D300000F0A780099B4B4409933B78002B00F0EF
:101D4000A08000234FF0FF3204930793059206937F
:101D50008DF853301A930126052221784E4800F061
:101D600047FA671C049B38B14B4A801A06FA00F008
:101D7000184304903C46EFE7D90644BF20228DF873
:101D800053201A0744BF2B228DF8532022782A2A89
:101D900003D0079A00210A200BE0039A111D126854
:101DA0000391002A10DA524243F002000792049095
:101DB0000BE0274601343B78303B092B03D800FB6E
:101DC00002320121F5E701B107923B782E2B1ED19B
:101DD0007B782A2B0AD1039B1A1D1B680392002BC8
:101DE000B8BF4FF0FF330237059310E0002305938F
:101DF000781C19460A24074601303A78303A092AF5
:101E000003D804FB01210123F5E703B10591032267
:101E10003978224800F0ECF940B14023CBEB0000C8
:101E200003FA00F0049B18430490013739781C48EA
:101E30008DF8281006227E1C00F0DAF988B1194BC3
:101E400033B9039B073323F007030833039314E0EC
:101E500003AB00932A46144B04A94046AFF300801D
:101E600007E003AB00932A460F4B04A9404600F05D
:101E700093F8B0F1FF3F824603D0099B5344099386
:101E800042E7AB895B0601D4099801E04FF0FF30CF
:101E90001DB0BDE8F08F00BF1A26000820260008FC
:101EA0002426000800000000111C00082DE9F0475E
:101EB00091461F460A698B68DDF820809342B8BFBF
:101EC0001346C9F8003091F8432006460C4612B17B
:101ED0000133C9F800302368990642BFD9F80030B1
:101EE0000233C9F80030256815F0060510D104F159
:101EF000190A07E00123524639463046C0470130EF
:101F00001AD00135E368D9F800209B1A9D42F1DB15
:101F100094F843302268003318BF012392060FD58E
:101F2000E1185A1C302081F84300224494F84510EF
:101F300082F84310023303E04FF0FF30BDE8F08732
:101F400004F1430239463046C0470130F4D02268DC
:101F5000D9F80050E36802F00602042A08BF5D1BAE
:101F60002269A3680CBF25EAE57500259342C4BF2A
:101F70009B1AED184FF000091A344D4509D0012382
:101F8000224639463046C0470130D5D009F1010913
:101F9000F3E70020BDE8F0872DE9F04317460A7EFD
:101FA00085B06E2A984606460C460C9B01F1430EFE
:101FB00000F0AE8011D8632A22D009D8002A00F0A0
:101FC000BB80582A40F0CA8081F84520834955E0FB
:101FD000642A1ED0692A1CD0C0E0732A00F0B080A9
:101FE00009D86F2A2ED0702A40F0B8800A6842F0D3
:101FF00020020A603EE0752A24D0782A3AD0ADE06B
:102000001A6801F14205111D1960136884F8423005
:10201000A8E021681A6811F0800F02D0111D196024
:1020200008E011F0400F02F10401196002D0B2F98A
:10203000003000E01368002B3CDA2D225B4284F86C
:10204000432037E021681A6811F0800F02D0111D7B
:10205000196007E011F0400F02F10401196001D08E
:10206000138800E01368227E5C496F2A14BF0A229D
:1020700008221BE078225A4984F845202268186813
:1020800012F0800F00F104051D6003D1550601D543
:10209000038800E00368D00744BF42F020022260BA
:1020A0001BB9226822F0200222601022002084F84E
:1020B000430001E049490A226568A560002D08DB5C
:1020C000206820F0040020602BB9002D7DD17546DA
:1020D0000CE0002B79D07546B3FBF2F002FB103315
:1020E000CB5C05F8013D03460028F5D1082A0BD149
:1020F0002368DA0708D5236962689A42DEBF302375
:1021000005F8013C05F1FF35C5EB0E0323612EE018
:1021100008681A68496910F0800F03D0101D186014
:10212000136808E010F0400F02F104001860136813
:1021300001D0198000E0196000232361754616E084
:102140001A68111D1960156862680021284600F0A0
:102150004FF808B1401B6060636804E004F1420579
:1021600084F8422001232361002384F84330CDF812
:1021700000803B4603AA21463046FFF797FE013018
:1021800002D14FF0FF3026E023692A463946304617
:10219000C0470130F5D023689B0710D5002504F116
:1021A000190907E001234A4639463046C047013045
:1021B000E7D00135E368039A9B1A9D42F2DBE068A1
:1021C000039B9842B8BF184605E00B7884F842306C
:1021D00004F142058AE705B0BDE8F0832B2600082C
:1021E0003C26000800000000000000000000000085
:1021F00001F0FF01102A2BDB10F0070F08D010F8B8
:10220000013B013A8B422DD010F0070F42B3F6D1BB
:10221000F0B441EA012141EA014122F007047FF0D4
:1022200000070023F0E80256083C85EA010586EA2B
:10223000010685FA47F5A3FA87F586FA47F6A5FA67
:1022400087F68EB9EED1F0BC01F0FF0102F0070273
:1022500032B110F8013B013A83EA010313B1F8D11E
:102260000020704701387047002D06BF35460338FF
:10227000073815F0010F07D1013015F4807F02BF38
:10228000013015F4C03F0130F0BC0138704700BF89
:1022900010B5431E0A44914204D011F8014B03F8D3
:1022A000014FF8E710BD884210B501EB020301D8D9
:1022B000421E0BE09842FBD28118D21AD34204D0BE
:1022C00013F8014D01F8014DF8E710BD994204D013
:1022D00011F8014B02F8014FF8E710BD38B505467B
:1022E000002946D051F8043C0C1F002BB8BFE4185D
:1022F00000F0D6F81F4A1368114613B963601460E2
:1023000032E0A3420ED92268A018834204BF1868A5
:102310005B68636004BF121822600C6024E0A24274
:1023200003D813465A68002AF9D118681918A1422F
:102330000BD12168014458188242196014D11068E9
:1023400052685A60014419600EE002D90C232B60D8
:102350000AE021686018824204BF10685268626017
:1023600004BF091821605C602846BDE8384000F0D1
:1023700098B838BDD001002070B5CD1C25F00305FC
:1023800008350C2D38BF0C25002D064601DBA9426F
:1023900002D90C23336046E000F082F8234B1C681E
:1023A0001A462146A1B10B685B1B0ED40B2B03D937
:1023B0000B60CC18CD501EE08C420DBF63684B689B
:1023C0006360136018BF0C4615E00C464968E9E7E6
:1023D000174C23681BB9304600F052F8206029469C
:1023E000304600F04DF8431C18D0C41C24F0030400
:1023F000A0420DD12560304600F053F804F10B00E7
:10240000231D20F00700C31A0ED05A42E25070BDBF
:10241000211A304600F034F80130EBD10C23336040
:10242000304600F03EF8002070BD00BFD001002013
:10243000CC010020F8B5074615460E4621B91146D5
:10244000BDE8F840FFF798BF1AB9FFF747FF2846E5
:10245000F8BD00F027F885420ED929463846FFF727
:102460008BFF044650B131462A46FFF711FF314633
:102470003846FFF733FF01E03046F8BD2046F8BD8F
:1024800038B5064C0023054608462360FDF7CAFF11
:10249000431C02D1236803B12B6038BDD401002056
:1024A0007047704751F8040C0028BEBF091851F856
:1024B000043CC01804387047537461636B20667223
:1024C000616D653A0A000000205230203D20202531
:1024D0003038580A00000000205231203D202025CD
:1024E0003038580A00000000205232203D202025BC
:1024F0003038580A00000000205233203D202025AB
:102500003038580A0000000020523132203D20258A
:102510003038580A00000000204C52203D20202571
:102520003038580A00000000205043203D2020256C
:102530003038580A0000000020505352203D20251A
:102540003038580A000000004653522F4641523A94
:102550000A0000002043465352203D2020253038F9
:10256000580A00002048465352203D20202530388C
:10257000580A00002044465352203D202025303880
:10258000580A00002041465352203D202025303873
:10259000580A0000204D4D464152203D202530383C
:1025A000580A00002042464152203D202025303864
:1025B000580A00004D6973630A000000204C522F36
:1025C0004558435F52455455524E3D2025303858AA
:1025D0000A0000005B486172644661756C745D0AB4
:1025E000000000005B4275734661756C745D0A0003
:1025F0005B55736167654661756C745D0A00000028
:1026000000000000000000000102030406070809A2
:1026100000000200002001000300232D302B2000C9
:10262000686C4C006566674546470030313233348C
:10263000353637383941424344454600303132332C
:0D26400034353637383961626364656600F1
:1026500078563412E4000020000000000024F4004A
:10266000000002400004024000080240000C02404A
:1026700000100240001C024000E100E0003802406F
:10268000030303FF001001400044004000401140DC
:10269000030303FF0001000000000000802500008C
:1026A0000000000000000002110000000300000014
:1026B0000000000411000000030000000000000002
:1026C000484948FF00000000000000000000000032
:1026D00000000000000000000000000000000000FA
:1026E00000000000000000000000000000000000EA
:1026F00000000000000000000000000000000000DA
:1027000000000000000000000000000000000000C9
:1027100000000000000000000000000000000000B9
:0C27200000000000740000203254769885
:040000050800019559
:00000001FF
